{
  "contractName": "ClickCoinCrowdsale",
  "abi": [
    {
      "constant": true,
      "inputs": [],
      "name": "isSetAdviserWallet",
      "outputs": [
        {
          "name": "",
          "type": "bool"
        }
      ],
      "payable": false,
      "stateMutability": "view",
      "type": "function"
    },
    {
      "constant": true,
      "inputs": [],
      "name": "hasPrematurelyEnded",
      "outputs": [
        {
          "name": "",
          "type": "bool"
        }
      ],
      "payable": false,
      "stateMutability": "view",
      "type": "function"
    },
    {
      "constant": true,
      "inputs": [],
      "name": "mintingFinished",
      "outputs": [
        {
          "name": "",
          "type": "bool"
        }
      ],
      "payable": false,
      "stateMutability": "view",
      "type": "function"
    },
    {
      "constant": true,
      "inputs": [],
      "name": "name",
      "outputs": [
        {
          "name": "",
          "type": "string"
        }
      ],
      "payable": false,
      "stateMutability": "view",
      "type": "function"
    },
    {
      "constant": false,
      "inputs": [
        {
          "name": "_spender",
          "type": "address"
        },
        {
          "name": "_value",
          "type": "uint256"
        }
      ],
      "name": "approve",
      "outputs": [
        {
          "name": "",
          "type": "bool"
        }
      ],
      "payable": false,
      "stateMutability": "nonpayable",
      "type": "function"
    },
    {
      "constant": true,
      "inputs": [
        {
          "name": "_operator",
          "type": "address"
        },
        {
          "name": "_role",
          "type": "string"
        }
      ],
      "name": "checkRole",
      "outputs": [],
      "payable": false,
      "stateMutability": "view",
      "type": "function"
    },
    {
      "constant": true,
      "inputs": [],
      "name": "TEAM_AND_FOUNDER_SUPPLY",
      "outputs": [
        {
          "name": "",
          "type": "uint256"
        }
      ],
      "payable": false,
      "stateMutability": "view",
      "type": "function"
    },
    {
      "constant": true,
      "inputs": [],
      "name": "_stage",
      "outputs": [
        {
          "name": "",
          "type": "uint8"
        }
      ],
      "payable": false,
      "stateMutability": "view",
      "type": "function"
    },
    {
      "constant": true,
      "inputs": [],
      "name": "totalSupply",
      "outputs": [
        {
          "name": "",
          "type": "uint256"
        }
      ],
      "payable": false,
      "stateMutability": "view",
      "type": "function"
    },
    {
      "constant": true,
      "inputs": [],
      "name": "ROLE_WHITELISTED",
      "outputs": [
        {
          "name": "",
          "type": "string"
        }
      ],
      "payable": false,
      "stateMutability": "view",
      "type": "function"
    },
    {
      "constant": true,
      "inputs": [],
      "name": "crowdsaleEndTime",
      "outputs": [
        {
          "name": "",
          "type": "uint256"
        }
      ],
      "payable": false,
      "stateMutability": "view",
      "type": "function"
    },
    {
      "constant": true,
      "inputs": [
        {
          "name": "_operator",
          "type": "address"
        },
        {
          "name": "_role",
          "type": "string"
        }
      ],
      "name": "hasRole",
      "outputs": [
        {
          "name": "",
          "type": "bool"
        }
      ],
      "payable": false,
      "stateMutability": "view",
      "type": "function"
    },
    {
      "constant": false,
      "inputs": [
        {
          "name": "_operators",
          "type": "address[]"
        }
      ],
      "name": "removeAddressesFromWhitelist",
      "outputs": [],
      "payable": false,
      "stateMutability": "nonpayable",
      "type": "function"
    },
    {
      "constant": false,
      "inputs": [
        {
          "name": "_operator",
          "type": "address"
        }
      ],
      "name": "removeAddressFromWhitelist",
      "outputs": [],
      "payable": false,
      "stateMutability": "nonpayable",
      "type": "function"
    },
    {
      "constant": true,
      "inputs": [],
      "name": "decimals",
      "outputs": [
        {
          "name": "",
          "type": "uint256"
        }
      ],
      "payable": false,
      "stateMutability": "view",
      "type": "function"
    },
    {
      "constant": true,
      "inputs": [],
      "name": "MAX_TOTAL_SUPPLY",
      "outputs": [
        {
          "name": "",
          "type": "uint256"
        }
      ],
      "payable": false,
      "stateMutability": "view",
      "type": "function"
    },
    {
      "constant": true,
      "inputs": [],
      "name": "initialSupply",
      "outputs": [
        {
          "name": "",
          "type": "uint256"
        }
      ],
      "payable": false,
      "stateMutability": "view",
      "type": "function"
    },
    {
      "constant": false,
      "inputs": [],
      "name": "unpause",
      "outputs": [],
      "payable": false,
      "stateMutability": "nonpayable",
      "type": "function"
    },
    {
      "constant": false,
      "inputs": [
        {
          "name": "_to",
          "type": "address"
        },
        {
          "name": "_amount",
          "type": "uint256"
        }
      ],
      "name": "mint",
      "outputs": [
        {
          "name": "",
          "type": "bool"
        }
      ],
      "payable": false,
      "stateMutability": "nonpayable",
      "type": "function"
    },
    {
      "constant": true,
      "inputs": [],
      "name": "tokensSold",
      "outputs": [
        {
          "name": "",
          "type": "uint256"
        }
      ],
      "payable": false,
      "stateMutability": "view",
      "type": "function"
    },
    {
      "constant": true,
      "inputs": [],
      "name": "CLCPerBitcoin",
      "outputs": [
        {
          "name": "",
          "type": "uint256"
        }
      ],
      "payable": false,
      "stateMutability": "view",
      "type": "function"
    },
    {
      "constant": true,
      "inputs": [],
      "name": "CROWDSALE_SUPPLY",
      "outputs": [
        {
          "name": "",
          "type": "uint256"
        }
      ],
      "payable": false,
      "stateMutability": "view",
      "type": "function"
    },
    {
      "constant": true,
      "inputs": [],
      "name": "paused",
      "outputs": [
        {
          "name": "",
          "type": "bool"
        }
      ],
      "payable": false,
      "stateMutability": "view",
      "type": "function"
    },
    {
      "constant": true,
      "inputs": [],
      "name": "BOUNTY_SUPPLY",
      "outputs": [
        {
          "name": "",
          "type": "uint256"
        }
      ],
      "payable": false,
      "stateMutability": "view",
      "type": "function"
    },
    {
      "constant": true,
      "inputs": [],
      "name": "ADVISER_SUPPLY",
      "outputs": [
        {
          "name": "",
          "type": "uint256"
        }
      ],
      "payable": false,
      "stateMutability": "view",
      "type": "function"
    },
    {
      "constant": false,
      "inputs": [
        {
          "name": "_spender",
          "type": "address"
        },
        {
          "name": "_subtractedValue",
          "type": "uint256"
        }
      ],
      "name": "decreaseApproval",
      "outputs": [
        {
          "name": "success",
          "type": "bool"
        }
      ],
      "payable": false,
      "stateMutability": "nonpayable",
      "type": "function"
    },
    {
      "constant": true,
      "inputs": [],
      "name": "isSetTeamWallet",
      "outputs": [
        {
          "name": "",
          "type": "bool"
        }
      ],
      "payable": false,
      "stateMutability": "view",
      "type": "function"
    },
    {
      "constant": true,
      "inputs": [],
      "name": "isSetBountyWallet",
      "outputs": [
        {
          "name": "",
          "type": "bool"
        }
      ],
      "payable": false,
      "stateMutability": "view",
      "type": "function"
    },
    {
      "constant": true,
      "inputs": [],
      "name": "adviserFund",
      "outputs": [
        {
          "name": "",
          "type": "address"
        }
      ],
      "payable": false,
      "stateMutability": "view",
      "type": "function"
    },
    {
      "constant": true,
      "inputs": [
        {
          "name": "_owner",
          "type": "address"
        }
      ],
      "name": "balanceOf",
      "outputs": [
        {
          "name": "",
          "type": "uint256"
        }
      ],
      "payable": false,
      "stateMutability": "view",
      "type": "function"
    },
    {
      "constant": false,
      "inputs": [],
      "name": "renounceOwnership",
      "outputs": [],
      "payable": false,
      "stateMutability": "nonpayable",
      "type": "function"
    },
    {
      "constant": true,
      "inputs": [],
      "name": "PRESALE_SUPPLY",
      "outputs": [
        {
          "name": "",
          "type": "uint256"
        }
      ],
      "payable": false,
      "stateMutability": "view",
      "type": "function"
    },
    {
      "constant": true,
      "inputs": [],
      "name": "crowdSaleTotalTokensSold",
      "outputs": [
        {
          "name": "",
          "type": "uint256"
        }
      ],
      "payable": false,
      "stateMutability": "view",
      "type": "function"
    },
    {
      "constant": false,
      "inputs": [
        {
          "name": "_operator",
          "type": "address"
        }
      ],
      "name": "addAddressToWhitelist",
      "outputs": [],
      "payable": false,
      "stateMutability": "nonpayable",
      "type": "function"
    },
    {
      "constant": false,
      "inputs": [],
      "name": "finishMinting",
      "outputs": [
        {
          "name": "",
          "type": "bool"
        }
      ],
      "payable": false,
      "stateMutability": "nonpayable",
      "type": "function"
    },
    {
      "constant": false,
      "inputs": [],
      "name": "pause",
      "outputs": [],
      "payable": false,
      "stateMutability": "nonpayable",
      "type": "function"
    },
    {
      "constant": true,
      "inputs": [
        {
          "name": "",
          "type": "uint256"
        }
      ],
      "name": "walletAddress",
      "outputs": [
        {
          "name": "",
          "type": "address"
        }
      ],
      "payable": false,
      "stateMutability": "view",
      "type": "function"
    },
    {
      "constant": true,
      "inputs": [],
      "name": "AIRDROP_SUPPLY",
      "outputs": [
        {
          "name": "",
          "type": "uint256"
        }
      ],
      "payable": false,
      "stateMutability": "view",
      "type": "function"
    },
    {
      "constant": true,
      "inputs": [
        {
          "name": "",
          "type": "uint256"
        }
      ],
      "name": "rounds",
      "outputs": [
        {
          "name": "roundName",
          "type": "string"
        },
        {
          "name": "roundStartDate",
          "type": "uint256"
        },
        {
          "name": "roundEndDate",
          "type": "uint256"
        },
        {
          "name": "roundTokensSold",
          "type": "uint256"
        },
        {
          "name": "roundEthRaised",
          "type": "uint256"
        },
        {
          "name": "percentOfTokensAvailable",
          "type": "uint8"
        },
        {
          "name": "roundBonusPercent",
          "type": "uint8"
        }
      ],
      "payable": false,
      "stateMutability": "view",
      "type": "function"
    },
    {
      "constant": true,
      "inputs": [],
      "name": "owner",
      "outputs": [
        {
          "name": "",
          "type": "address"
        }
      ],
      "payable": false,
      "stateMutability": "view",
      "type": "function"
    },
    {
      "constant": true,
      "inputs": [],
      "name": "softCap",
      "outputs": [
        {
          "name": "",
          "type": "uint256"
        }
      ],
      "payable": false,
      "stateMutability": "view",
      "type": "function"
    },
    {
      "constant": true,
      "inputs": [],
      "name": "symbol",
      "outputs": [
        {
          "name": "",
          "type": "string"
        }
      ],
      "payable": false,
      "stateMutability": "view",
      "type": "function"
    },
    {
      "constant": true,
      "inputs": [
        {
          "name": "_operator",
          "type": "address"
        }
      ],
      "name": "whitelist",
      "outputs": [
        {
          "name": "",
          "type": "bool"
        }
      ],
      "payable": false,
      "stateMutability": "view",
      "type": "function"
    },
    {
      "constant": true,
      "inputs": [],
      "name": "teamAndFounderFund",
      "outputs": [
        {
          "name": "",
          "type": "address"
        }
      ],
      "payable": false,
      "stateMutability": "view",
      "type": "function"
    },
    {
      "constant": true,
      "inputs": [],
      "name": "RESERVE_SUPPLY",
      "outputs": [
        {
          "name": "",
          "type": "uint256"
        }
      ],
      "payable": false,
      "stateMutability": "view",
      "type": "function"
    },
    {
      "constant": true,
      "inputs": [],
      "name": "reserveFund",
      "outputs": [
        {
          "name": "",
          "type": "address"
        }
      ],
      "payable": false,
      "stateMutability": "view",
      "type": "function"
    },
    {
      "constant": true,
      "inputs": [
        {
          "name": "",
          "type": "address"
        }
      ],
      "name": "balanceamount",
      "outputs": [
        {
          "name": "",
          "type": "uint256"
        }
      ],
      "payable": false,
      "stateMutability": "view",
      "type": "function"
    },
    {
      "constant": true,
      "inputs": [],
      "name": "bountyFund",
      "outputs": [
        {
          "name": "",
          "type": "address"
        }
      ],
      "payable": false,
      "stateMutability": "view",
      "type": "function"
    },
    {
      "constant": true,
      "inputs": [],
      "name": "crowdSaleTotalEthRaised",
      "outputs": [
        {
          "name": "",
          "type": "uint256"
        }
      ],
      "payable": false,
      "stateMutability": "view",
      "type": "function"
    },
    {
      "constant": false,
      "inputs": [
        {
          "name": "_spender",
          "type": "address"
        },
        {
          "name": "_addedValue",
          "type": "uint256"
        }
      ],
      "name": "increaseApproval",
      "outputs": [
        {
          "name": "success",
          "type": "bool"
        }
      ],
      "payable": false,
      "stateMutability": "nonpayable",
      "type": "function"
    },
    {
      "constant": true,
      "inputs": [
        {
          "name": "_owner",
          "type": "address"
        },
        {
          "name": "_spender",
          "type": "address"
        }
      ],
      "name": "allowance",
      "outputs": [
        {
          "name": "",
          "type": "uint256"
        }
      ],
      "payable": false,
      "stateMutability": "view",
      "type": "function"
    },
    {
      "constant": false,
      "inputs": [
        {
          "name": "_operators",
          "type": "address[]"
        }
      ],
      "name": "addAddressesToWhitelist",
      "outputs": [],
      "payable": false,
      "stateMutability": "nonpayable",
      "type": "function"
    },
    {
      "constant": true,
      "inputs": [],
      "name": "crowdsaleStartTime",
      "outputs": [
        {
          "name": "",
          "type": "uint256"
        }
      ],
      "payable": false,
      "stateMutability": "view",
      "type": "function"
    },
    {
      "constant": true,
      "inputs": [],
      "name": "isSetReserveWallet",
      "outputs": [
        {
          "name": "",
          "type": "bool"
        }
      ],
      "payable": false,
      "stateMutability": "view",
      "type": "function"
    },
    {
      "constant": true,
      "inputs": [],
      "name": "CLCPerDollar",
      "outputs": [
        {
          "name": "",
          "type": "uint256"
        }
      ],
      "payable": false,
      "stateMutability": "view",
      "type": "function"
    },
    {
      "constant": true,
      "inputs": [
        {
          "name": "",
          "type": "uint256"
        }
      ],
      "name": "roundIndexes",
      "outputs": [
        {
          "name": "",
          "type": "uint8"
        }
      ],
      "payable": false,
      "stateMutability": "view",
      "type": "function"
    },
    {
      "constant": true,
      "inputs": [
        {
          "name": "",
          "type": "address"
        }
      ],
      "name": "addressadded",
      "outputs": [
        {
          "name": "",
          "type": "bool"
        }
      ],
      "payable": false,
      "stateMutability": "view",
      "type": "function"
    },
    {
      "constant": false,
      "inputs": [
        {
          "name": "_newOwner",
          "type": "address"
        }
      ],
      "name": "transferOwnership",
      "outputs": [],
      "payable": false,
      "stateMutability": "nonpayable",
      "type": "function"
    },
    {
      "constant": true,
      "inputs": [],
      "name": "CLCPerEther",
      "outputs": [
        {
          "name": "",
          "type": "uint256"
        }
      ],
      "payable": false,
      "stateMutability": "view",
      "type": "function"
    },
    {
      "constant": true,
      "inputs": [],
      "name": "hardCap",
      "outputs": [
        {
          "name": "",
          "type": "uint256"
        }
      ],
      "payable": false,
      "stateMutability": "view",
      "type": "function"
    },
    {
      "constant": true,
      "inputs": [],
      "name": "airdropAmount",
      "outputs": [
        {
          "name": "",
          "type": "uint256"
        }
      ],
      "payable": false,
      "stateMutability": "view",
      "type": "function"
    },
    {
      "constant": true,
      "inputs": [],
      "name": "ethRaised",
      "outputs": [
        {
          "name": "",
          "type": "uint256"
        }
      ],
      "payable": false,
      "stateMutability": "view",
      "type": "function"
    },
    {
      "inputs": [],
      "payable": false,
      "stateMutability": "nonpayable",
      "type": "constructor"
    },
    {
      "payable": true,
      "stateMutability": "payable",
      "type": "fallback"
    },
    {
      "anonymous": false,
      "inputs": [
        {
          "indexed": true,
          "name": "operator",
          "type": "address"
        },
        {
          "indexed": false,
          "name": "role",
          "type": "string"
        }
      ],
      "name": "RoleAdded",
      "type": "event"
    },
    {
      "anonymous": false,
      "inputs": [
        {
          "indexed": true,
          "name": "operator",
          "type": "address"
        },
        {
          "indexed": false,
          "name": "role",
          "type": "string"
        }
      ],
      "name": "RoleRemoved",
      "type": "event"
    },
    {
      "anonymous": false,
      "inputs": [],
      "name": "Pause",
      "type": "event"
    },
    {
      "anonymous": false,
      "inputs": [],
      "name": "Unpause",
      "type": "event"
    },
    {
      "anonymous": false,
      "inputs": [
        {
          "indexed": true,
          "name": "to",
          "type": "address"
        },
        {
          "indexed": false,
          "name": "amount",
          "type": "uint256"
        }
      ],
      "name": "Mint",
      "type": "event"
    },
    {
      "anonymous": false,
      "inputs": [],
      "name": "MintFinished",
      "type": "event"
    },
    {
      "anonymous": false,
      "inputs": [
        {
          "indexed": true,
          "name": "previousOwner",
          "type": "address"
        }
      ],
      "name": "OwnershipRenounced",
      "type": "event"
    },
    {
      "anonymous": false,
      "inputs": [
        {
          "indexed": true,
          "name": "previousOwner",
          "type": "address"
        },
        {
          "indexed": true,
          "name": "newOwner",
          "type": "address"
        }
      ],
      "name": "OwnershipTransferred",
      "type": "event"
    },
    {
      "anonymous": false,
      "inputs": [
        {
          "indexed": true,
          "name": "owner",
          "type": "address"
        },
        {
          "indexed": true,
          "name": "spender",
          "type": "address"
        },
        {
          "indexed": false,
          "name": "value",
          "type": "uint256"
        }
      ],
      "name": "Approval",
      "type": "event"
    },
    {
      "anonymous": false,
      "inputs": [
        {
          "indexed": true,
          "name": "from",
          "type": "address"
        },
        {
          "indexed": true,
          "name": "to",
          "type": "address"
        },
        {
          "indexed": false,
          "name": "value",
          "type": "uint256"
        }
      ],
      "name": "Transfer",
      "type": "event"
    },
    {
      "constant": false,
      "inputs": [
        {
          "name": "_teamAndFounderFund",
          "type": "address"
        }
      ],
      "name": "setTeamAddress",
      "outputs": [],
      "payable": false,
      "stateMutability": "nonpayable",
      "type": "function"
    },
    {
      "constant": false,
      "inputs": [
        {
          "name": "_reserveFund",
          "type": "address"
        }
      ],
      "name": "setReserveAddress",
      "outputs": [],
      "payable": false,
      "stateMutability": "nonpayable",
      "type": "function"
    },
    {
      "constant": false,
      "inputs": [
        {
          "name": "_adviserFund",
          "type": "address"
        }
      ],
      "name": "setAdviserAddress",
      "outputs": [],
      "payable": false,
      "stateMutability": "nonpayable",
      "type": "function"
    },
    {
      "constant": false,
      "inputs": [
        {
          "name": "_bountyFund",
          "type": "address"
        }
      ],
      "name": "setBountyAddress",
      "outputs": [],
      "payable": false,
      "stateMutability": "nonpayable",
      "type": "function"
    },
    {
      "constant": false,
      "inputs": [
        {
          "name": "_to",
          "type": "address"
        },
        {
          "name": "_value",
          "type": "uint256"
        }
      ],
      "name": "transfer",
      "outputs": [
        {
          "name": "",
          "type": "bool"
        }
      ],
      "payable": false,
      "stateMutability": "nonpayable",
      "type": "function"
    },
    {
      "constant": false,
      "inputs": [
        {
          "name": "_from",
          "type": "address"
        },
        {
          "name": "_to",
          "type": "address"
        },
        {
          "name": "_value",
          "type": "uint256"
        }
      ],
      "name": "transferFrom",
      "outputs": [
        {
          "name": "",
          "type": "bool"
        }
      ],
      "payable": false,
      "stateMutability": "nonpayable",
      "type": "function"
    },
    {
      "constant": true,
      "inputs": [
        {
          "name": "index",
          "type": "uint256"
        }
      ],
      "name": "getRoundDetails",
      "outputs": [
        {
          "name": "",
          "type": "string"
        },
        {
          "name": "",
          "type": "uint256"
        },
        {
          "name": "",
          "type": "uint256"
        },
        {
          "name": "",
          "type": "uint256"
        },
        {
          "name": "",
          "type": "uint256"
        },
        {
          "name": "",
          "type": "uint8"
        },
        {
          "name": "",
          "type": "uint8"
        }
      ],
      "payable": false,
      "stateMutability": "view",
      "type": "function"
    },
    {
      "constant": true,
      "inputs": [],
      "name": "getRoundPrices",
      "outputs": [
        {
          "name": "",
          "type": "uint256"
        },
        {
          "name": "",
          "type": "uint256"
        },
        {
          "name": "",
          "type": "uint256"
        }
      ],
      "payable": false,
      "stateMutability": "view",
      "type": "function"
    },
    {
      "constant": true,
      "inputs": [
        {
          "name": "_address",
          "type": "address"
        }
      ],
      "name": "getBalanceInfo",
      "outputs": [
        {
          "name": "",
          "type": "uint256"
        }
      ],
      "payable": false,
      "stateMutability": "view",
      "type": "function"
    },
    {
      "constant": false,
      "inputs": [
        {
          "name": "index2",
          "type": "uint256"
        }
      ],
      "name": "startCrowdsaleStage",
      "outputs": [],
      "payable": false,
      "stateMutability": "nonpayable",
      "type": "function"
    },
    {
      "constant": false,
      "inputs": [],
      "name": "endCrowdsaleStage",
      "outputs": [],
      "payable": false,
      "stateMutability": "nonpayable",
      "type": "function"
    },
    {
      "constant": false,
      "inputs": [
        {
          "name": "crowdsalestarttime",
          "type": "uint256"
        },
        {
          "name": "crowdsaleendtime",
          "type": "uint256"
        },
        {
          "name": "CLCperether",
          "type": "uint256"
        },
        {
          "name": "CLCperbitcoin",
          "type": "uint256"
        },
        {
          "name": "CLCperdollar",
          "type": "uint256"
        }
      ],
      "name": "changeParameters",
      "outputs": [
        {
          "name": "",
          "type": "bool"
        }
      ],
      "payable": false,
      "stateMutability": "nonpayable",
      "type": "function"
    },
    {
      "constant": false,
      "inputs": [
        {
          "name": "sender",
          "type": "address"
        },
        {
          "name": "tokens",
          "type": "uint256"
        }
      ],
      "name": "buywithBTC",
      "outputs": [],
      "payable": false,
      "stateMutability": "nonpayable",
      "type": "function"
    },
    {
      "constant": false,
      "inputs": [],
      "name": "transferAllTokens",
      "outputs": [
        {
          "name": "",
          "type": "bool"
        }
      ],
      "payable": false,
      "stateMutability": "nonpayable",
      "type": "function"
    },
    {
      "constant": false,
      "inputs": [
        {
          "name": "sendingAddress",
          "type": "address"
        },
        {
          "name": "to",
          "type": "address"
        },
        {
          "name": "tokenAmount",
          "type": "uint256"
        }
      ],
      "name": "allocateTokens",
      "outputs": [],
      "payable": false,
      "stateMutability": "nonpayable",
      "type": "function"
    },
    {
      "constant": false,
      "inputs": [
        {
          "name": "dests",
          "type": "address[]"
        },
        {
          "name": "values",
          "type": "uint256[]"
        }
      ],
      "name": "multisend",
      "outputs": [
        {
          "name": "",
          "type": "uint256"
        }
      ],
      "payable": false,
      "stateMutability": "nonpayable",
      "type": "function"
    }
  ],
  "bytecode": "0x6003805460a060020a61ffff021916905560c0604052600960808190527f436c69636b436f696e000000000000000000000000000000000000000000000060a09081526200005191600591906200053a565b506040805180820190915260038082527f434c430000000000000000000000000000000000000000000000000000000000602090920191825262000098916006916200053a565b50601260075569021e19e0c9bab2400000600a55690a968163f0a57b400000600b556013805460ff19166001179055601b805460a060020a63ffffffff02191690556b01f04ef12cb04cf158000000601c55348015620000f757600080fd5b5060038054600160a060020a031916339081178255601c5460018181556000928352602083815260408085208490556010825280852093909355601e8490556012849055601380546103e8600c55611388600d55600a600e5563ffffff001916905560088490556009849055635b5028b9601455635b5c4cb0601555825160a08101845284815290810191909152600291810191909152606081019290925260046080830152908190819081908190620001b6906017906005620005bf565b5060008052601660209081526040805180820190915260078082527f50726573616c6500000000000000000000000000000000000000000000000000919092019081527f0263c2b778d062355049effc2dece97bc6547ff8a88a3258daa512061c2153dd96506200022a918791906200053a565b50635b5028b9600186810191909155635b51cec0600287015560006003870181905560048701819055600587018054600f60ff199091161761ff00191661190017905552601660209081526040805180820190915260078082527f526f756e64203100000000000000000000000000000000000000000000000000919092019081527f4c4dc693d7db52f85fe052106f4b4b920e78e8ef37dee82878a60ab8585faf499550620002dd918691906200053a565b50635b5312306001850155635b5463b060028086019190915560006003860181905560048601819055600586018054601960ff199091161761ff00191661140017905552601660209081526040805180820190915260078082527f526f756e64203200000000000000000000000000000000000000000000000000919092019081527fcaff291fe014adc6b72a172705750b4cabe8f8667664d2924a166caab2885648945062000390918591906200053a565b50635b55b5306001840155635b5706b060028401556000600380850182905560048501829055600585018054600a60ff199091161761ff001916610f001790559052601660209081526040805180820190915260078082527f526f756e64203300000000000000000000000000000000000000000000000000919092019081527ff06d282f967055cb1eee17e04aa005b9682a620f4bbcfaee55ba78607a3d87ae935062000441918491906200053a565b5050635b5858306001820155635b59a9b060028201556000600382018190556004808301829055600583018054600760ff19909116811761ff001916610a0017909155915260166020908152604080518082019091528281527f526f756e6420340000000000000000000000000000000000000000000000000091019081527fec061709de2491458f4c981032059d7d19b0e55f45018bac6b3e660bdc959a5991620004ef9183916200053a565b50635b5afb306001820155635b5c4cb060028201556000600380830182905560048301919091556005909101805460ff191690911761ff00191661050017905550620006a992505050565b828054600181600116156101000203166002900490600052602060002090601f016020900481019282601f106200057d57805160ff1916838001178555620005ad565b82800160010185558215620005ad579182015b82811115620005ad57825182559160200191906001019062000590565b50620005bb92915062000668565b5090565b82805482825590600052602060002090601f016020900481019282156200065a5791602002820160005b838211156200062957835183826101000a81548160ff021916908360ff1602179055509260200192600101602081600001049283019260010302620005e9565b8015620006585782816101000a81549060ff021916905560010160208160000104928301926001030262000629565b505b50620005bb92915062000688565b6200068591905b80821115620005bb57600081556001016200066f565b90565b6200068591905b80821115620005bb57805460ff191681556001016200068f565b612d6080620006b96000396000f30060806040526004361061038f5763ffffffff7c01000000000000000000000000000000000000000000000000000000006000350416630146b6da81146104e957806301ac4c501461051257806305d2035b1461052757806306fdde031461053c578063095ea7b3146105c65780630988ca8c146105ea578063137037dc1461065357806314673d311461067a57806316396b631461069b57806316448c99146106d457806318160ddd146106fe57806318b919e9146107135780631d545d0914610728578063217fe6c61461073d57806323b872dd146107a457806324953eaa146107ce57806325c7f37a14610823578063286dd3f514610838578063313ce5671461085957806333039d3d1461086e57806334ed352d14610883578063378dc3dc146108b657806339adac4d146108cb5780633f4ba83a146108ec57806340c10f19146109015780634c96f0cc14610925578063518ab2a81461093a57806351cc85991461094f57806351f5e2f31461097357806354d99a5a1461099757806356ad9f57146109ac5780635c975abb146109c15780635d771933146109d65780635e7098f0146109eb5780636618846314610a005780636690864e14610a2457806366b62bde14610a455780636c7bb92714610a5a5780636e43bf1614610a6f57806370a0823114610aa0578063715018a614610ac157806373138e4f14610ad6578063755d575d14610aeb5780637b9417c814610b005780637d64bcb414610b215780638456cb5914610b3657806388196f6814610b4b5780638a857bc114610b635780638c65c81f14610b785780638da5cb5b14610c3e578063906a26e014610c5357806395d89b4114610c685780639b19251a14610c7d578063a9059cbb14610c9e578063a950b9b214610cc2578063aa66797b14610cd7578063aad41a4114610cec578063af6666e514610d18578063b6b12e6114610d30578063b7f92b7114610d48578063bde0f4eb14610d5d578063c06c66ca14610d7e578063c659ce2b14610d93578063d107fec714610db4578063d73dd62314610dc9578063dd62ed3e14610ded578063e2ec6ec314610e14578063e2fc421d14610e69578063e47c677914610e7e578063ee14745d14610e93578063eea8df9a14610eb4578063ef035ece14610ec9578063f262b4f014610ef7578063f2fde38b14610f18578063f32dd9c614610f39578063fb86a40414610f4e578063fc2ea8a514610f63578063fddf0fc014610f78575b600034811061039d57600080fd5b50600c5433600090815260116020526040902054349091029060ff16151560011461040557600f80546001810182556000919091527f8d1108e10bcb7c27dddfc02ed9d693a074039d026cf4ea4240b40f7d581ac802018054600160a060020a031916331790555b600354600160a060020a0316600090815260106020526040902054610430908263ffffffff610f8d16565b600354600160a060020a0316600090815260106020526040808220929092553381522054610464908263ffffffff610f9f16565b33600090815260106020526040902055601d54610487908263ffffffff610f9f16565b601d55601e5461049d903463ffffffff610f9f16565b601e556008546104b3908263ffffffff610f9f16565b6008556009546104c9903463ffffffff610f9f16565b60095550336000908152601160205260409020805460ff19166001179055005b3480156104f557600080fd5b506104fe610fb2565b604080519115158252519081900360200190f35b34801561051e57600080fd5b506104fe610fc2565b34801561053357600080fd5b506104fe610fd2565b34801561054857600080fd5b50610551610fe2565b6040805160208082528351818301528351919283929083019185019080838360005b8381101561058b578181015183820152602001610573565b50505050905090810190601f1680156105b85780820380516001836020036101000a031916815260200191505b509250505060405180910390f35b3480156105d257600080fd5b506104fe600160a060020a0360043516602435611070565b3480156105f657600080fd5b5060408051602060046024803582810135601f8101859004850286018501909652858552610651958335600160a060020a031695369560449491939091019190819084018382808284375094975061109b9650505050505050565b005b34801561065f57600080fd5b50610668611109565b60408051918252519081900360200190f35b34801561068657600080fd5b50610651600160a060020a0360043516611118565b3480156106a757600080fd5b506106b06111b5565b604051808260058111156106c057fe5b60ff16815260200191505060405180910390f35b3480156106e057600080fd5b50610651600160a060020a03600435811690602435166044356111be565b34801561070a57600080fd5b506106686112b8565b34801561071f57600080fd5b506105516112be565b34801561073457600080fd5b506106686112e3565b34801561074957600080fd5b5060408051602060046024803582810135601f81018590048502860185019096528585526104fe958335600160a060020a03169536956044949193909101919081908401838280828437509497506112e99650505050505050565b3480156107b057600080fd5b506104fe600160a060020a0360043581169060243516604435611355565b3480156107da57600080fd5b50604080516020600480358082013583810280860185019096528085526106519536959394602494938501929182918501908490808284375094975061140b9650505050505050565b34801561082f57600080fd5b5061065161145a565b34801561084457600080fd5b50610651600160a060020a0360043516611701565b34801561086557600080fd5b50610668611748565b34801561087a57600080fd5b5061066861174e565b34801561088f57600080fd5b5061089861175e565b60408051938452602084019290925282820152519081900360600190f35b3480156108c257600080fd5b5061066861176c565b3480156108d757600080fd5b50610668600160a060020a0360043516611772565b3480156108f857600080fd5b5061065161178d565b34801561090d57600080fd5b506104fe600160a060020a0360043516602435611806565b34801561093157600080fd5b506104fe6118fe565b34801561094657600080fd5b50610668611a39565b34801561095b57600080fd5b506104fe600435602435604435606435608435611a3f565b34801561097f57600080fd5b50610651600160a060020a0360043516602435611a74565b3480156109a357600080fd5b50610668611ba2565b3480156109b857600080fd5b50610668611ba8565b3480156109cd57600080fd5b506104fe611bb8565b3480156109e257600080fd5b50610668611bc8565b3480156109f757600080fd5b50610668611bd7565b348015610a0c57600080fd5b506104fe600160a060020a0360043516602435611be6565b348015610a3057600080fd5b50610651600160a060020a0360043516611c0a565b348015610a5157600080fd5b506104fe611c7f565b348015610a6657600080fd5b506104fe611c8f565b348015610a7b57600080fd5b50610a84611cb3565b60408051600160a060020a039092168252519081900360200190f35b348015610aac57600080fd5b50610668600160a060020a0360043516611cc2565b348015610acd57600080fd5b50610651611cdd565b348015610ae257600080fd5b50610668611d3e565b348015610af757600080fd5b50610668611d4d565b348015610b0c57600080fd5b50610651600160a060020a0360043516611d53565b348015610b2d57600080fd5b506104fe611d97565b348015610b4257600080fd5b50610651611e1b565b348015610b5757600080fd5b50610a84600435611e99565b348015610b6f57600080fd5b50610668611ec1565b348015610b8457600080fd5b50610b90600435611ed0565b60405180806020018881526020018781526020018681526020018581526020018460ff1660ff1681526020018360ff1660ff168152602001828103825289818151815260200191508051906020019080838360005b83811015610bfd578181015183820152602001610be5565b50505050905090810190601f168015610c2a5780820380516001836020036101000a031916815260200191505b509850505050505050505060405180910390f35b348015610c4a57600080fd5b50610a84611f9c565b348015610c5f57600080fd5b50610668611fab565b348015610c7457600080fd5b50610551611fb1565b348015610c8957600080fd5b506104fe600160a060020a036004351661200c565b348015610caa57600080fd5b506104fe600160a060020a036004351660243561203b565b348015610cce57600080fd5b50610a846120ec565b348015610ce357600080fd5b506106686120fb565b348015610cf857600080fd5b50610668602460048035828101929082013591813591820191013561210a565b348015610d2457600080fd5b5061065160043561217b565b348015610d3c57600080fd5b50610b90600435612236565b348015610d5457600080fd5b50610a84612327565b348015610d6957600080fd5b50610668600160a060020a0360043516612336565b348015610d8a57600080fd5b50610a84612348565b348015610d9f57600080fd5b50610651600160a060020a0360043516612357565b348015610dc057600080fd5b506106686123f1565b348015610dd557600080fd5b506104fe600160a060020a03600435166024356123f7565b348015610df957600080fd5b50610668600160a060020a036004358116906024351661241b565b348015610e2057600080fd5b5060408051602060048035808201358381028086018501909652808552610651953695939460249493850192918291850190849080828437509497506124469650505050505050565b348015610e7557600080fd5b50610668612495565b348015610e8a57600080fd5b506104fe61249b565b348015610e9f57600080fd5b50610651600160a060020a03600435166124be565b348015610ec057600080fd5b50610668612534565b348015610ed557600080fd5b50610ee160043561253a565b6040805160ff9092168252519081900360200190f35b348015610f0357600080fd5b506104fe600160a060020a036004351661256c565b348015610f2457600080fd5b50610651600160a060020a0360043516612581565b348015610f4557600080fd5b506106686125a1565b348015610f5a57600080fd5b506106686125a7565b348015610f6f57600080fd5b506106686125ad565b348015610f8457600080fd5b506106686125b3565b600082821115610f9957fe5b50900390565b81810182811015610fac57fe5b92915050565b601b5460a860020a900460ff1681565b6013546301000000900460ff1681565b60035460a060020a900460ff1681565b6005805460408051602060026001851615610100026000190190941693909304601f810184900484028201840190925281815292918301828280156110685780601f1061103d57610100808354040283529160200191611068565b820191906000526020600020905b81548152906001019060200180831161104b57829003601f168201915b505050505081565b60035460009060a860020a900460ff161561108a57600080fd5b61109483836125b9565b9392505050565b611105826004836040518082805190602001908083835b602083106110d15780518252601f1990920191602091820191016110b2565b51815160209384036101000a600019018019909216911617905292019485525060405193849003019092209291505061261f565b5050565b6a6b88921f0410abc200000081565b600354600160a060020a0316331461112f57600080fd5b601b54760100000000000000000000000000000000000000000000900460ff161561115957600080fd5b60198054600160a060020a03909216600160a060020a0319909216919091179055601b805476ff000000000000000000000000000000000000000000001916760100000000000000000000000000000000000000000000179055565b60135460ff1681565b600354600160a060020a038481169116146111d857600080fd5b600160a060020a0383166000908152602081905260409020548111156111fd57600080fd5b600160a060020a038216151561121257600080fd5b600160a060020a03831660009081526020819052604090205461123b908263ffffffff610f8d16565b600160a060020a038085166000908152602081905260408082209390935590841681522054611270908263ffffffff610f9f16565b600160a060020a03808416600081815260208181526040918290209490945580518581529051919392871692600080516020612d1583398151915292918290030190a3505050565b60015490565b6040805180820190915260098152600080516020612cf5833981519152602082015281565b60155481565b6000611094836004846040518082805190602001908083835b602083106113215780518252601f199092019160209182019101611302565b51815160209384036101000a6000190180199092169116179052920194855250604051938490030190922092915050612634565b6018546000908490600160a060020a038083169116141561138557635cab29b0421161138057600080fd5b6113f7565b601954600160a060020a03828116911614156113ab57635cab29b0421161138057600080fd5b601a54600160a060020a03828116911614156113d157635cab29b0421161138057600080fd5b601b54600160a060020a03828116911614156113f757635cab29b0421161138057600080fd5b611402858585612653565b95945050505050565b600354600090600160a060020a0316331461142557600080fd5b5060005b815181101561110557611452828281518110151561144357fe5b90602001906020020151611701565b600101611429565b600354600160a060020a0316331461147157600080fd5b600060135460ff16600581111561148457fe5b14156114ed57601d8054600080805260166020527f0263c2b778d062355049effc2dece97bc6547ff8a88a3258daa512061c2153e09190915590819055601e80547f0263c2b778d062355049effc2dece97bc6547ff8a88a3258daa512061c2153e155556116f2565b600160135460ff16600581111561150057fe5b141561156b57601d80546001600090815260166020527f4c4dc693d7db52f85fe052106f4b4b920e78e8ef37dee82878a60ab8585faf4c9190915590819055601e80547f4c4dc693d7db52f85fe052106f4b4b920e78e8ef37dee82878a60ab8585faf4d55556116f2565b600260135460ff16600581111561157e57fe5b14156115e957601d80546002600090815260166020527fcaff291fe014adc6b72a172705750b4cabe8f8667664d2924a166caab288564b9190915590819055601e80547fcaff291fe014adc6b72a172705750b4cabe8f8667664d2924a166caab288564c55556116f2565b600360135460ff1660058111156115fc57fe5b141561166757601d80546003600090815260166020527ff06d282f967055cb1eee17e04aa005b9682a620f4bbcfaee55ba78607a3d87b19190915590819055601e80547ff06d282f967055cb1eee17e04aa005b9682a620f4bbcfaee55ba78607a3d87b255556116f2565b600460135460ff16600581111561167a57fe5b14156116f257601d80546004600090815260166020527fec061709de2491458f4c981032059d7d19b0e55f45018bac6b3e660bdc959a5c9190915590819055601e80547fec061709de2491458f4c981032059d7d19b0e55f45018bac6b3e660bdc959a5d55556013805462ff00001916620100001790555b6013805460ff19166005179055565b600354600160a060020a0316331461171857600080fd5b61174581604080519081016040528060098152602001600080516020612cf5833981519152815250612678565b50565b60075481565b6b033b2e3c9fd0803ce800000081565b600c54600d54600e54909192565b601c5481565b600160a060020a031660009081526010602052604090205490565b600354600160a060020a031633146117a457600080fd5b60035460a860020a900460ff1615156117bc57600080fd5b6003805475ff000000000000000000000000000000000000000000191690556040517f7805862f689e2f13df9f062ff482ad3ad112aca9e0847911ed832e158c525b3390600090a1565b600354600090600160a060020a0316331461182057600080fd5b60035460a060020a900460ff161561183757600080fd5b60015461184a908363ffffffff610f9f16565b600155600160a060020a038316600090815260208190526040902054611876908363ffffffff610f9f16565b600160a060020a03841660008181526020818152604091829020939093558051858152905191927f0f6798a560793a54c3bcfe86a93cde1e73087d944c0ea20544137d412139688592918290030190a2604080518381529051600160a060020a03851691600091600080516020612d158339815191529181900360200190a350600192915050565b6003546000908190600160a060020a0316331461191a57600080fd5b5060005b600f5463ffffffff82161015611a3157600060106000600f8463ffffffff1681548110151561194957fe5b6000918252602080832090910154600160a060020a031683528201929092526040019020541115611a29576119e833600f8363ffffffff1681548110151561198d57fe5b6000918252602082200154600f8054600160a060020a039092169260109290919063ffffffff88169081106119be57fe5b6000918252602080832090910154600160a060020a031683528201929092526040019020546111be565b600060106000600f8463ffffffff16815481101515611a0357fe5b6000918252602080832090910154600160a060020a031683528201929092526040019020555b60010161191e565b600191505090565b601d5481565b600354600090600160a060020a03163314611a5957600080fd5b50601494909455601592909255600c55600d55600e55600190565b3360009081526011602052604090205460ff161515600114611adc57600f80546001810182556000919091527f8d1108e10bcb7c27dddfc02ed9d693a074039d026cf4ea4240b40f7d581ac802018054600160a060020a031916600160a060020a0384161790555b600354600160a060020a0316600090815260106020526040902054611b07908263ffffffff610f8d16565b600354600160a060020a039081166000908152601060205260408082209390935590841681522054611b3f908263ffffffff610f9f16565b600160a060020a038316600090815260106020526040902055601d54611b6b908263ffffffff610f9f16565b601d55600854611b81908263ffffffff610f9f16565b6008555050336000908152601160205260409020805460ff19166001179055565b600d5481565b6b01743b34e18439b50200000081565b60035460a860020a900460ff1681565b6a211654585005212800000081565b6a108b2a2c2802909400000081565b60035460009060a860020a900460ff1615611c0057600080fd5b6110948383612789565b600354600160a060020a03163314611c2157600080fd5b601b5460a060020a900460ff1615611c3857600080fd5b60188054600160a060020a03909216600160a060020a0319909216919091179055601b805474ff0000000000000000000000000000000000000000191660a060020a179055565b601b5460a060020a900460ff1681565b601b5477010000000000000000000000000000000000000000000000900460ff1681565b601a54600160a060020a031681565b600160a060020a031660009081526020819052604090205490565b600354600160a060020a03163314611cf457600080fd5b600354604051600160a060020a03909116907ff8df31144d9c2f0f6b59d69b8b98abd5459d07f2742c4df920b25aae33c6482090600090a260038054600160a060020a0319169055565b6a7c13bc4b2c133c5600000081565b60085481565b600354600160a060020a03163314611d6a57600080fd5b61174581604080519081016040528060098152602001600080516020612cf5833981519152815250612879565b600354600090600160a060020a03163314611db157600080fd5b60035460a060020a900460ff1615611dc857600080fd5b6003805474ff0000000000000000000000000000000000000000191660a060020a1790556040517fae5184fba832cb2b1f702aca6117b8d265eaf03ad33eb133f19dde0f5920fa0890600090a150600190565b600354600160a060020a03163314611e3257600080fd5b60035460a860020a900460ff1615611e4957600080fd5b6003805475ff000000000000000000000000000000000000000000191660a860020a1790556040517f6985a02210a168e66602d3235cb6db0e70f92b3ba4d376a33c0f3d9434bff62590600090a1565b600f805482908110611ea757fe5b600091825260209091200154600160a060020a0316905081565b6a084595161401484a00000081565b60166020908152600091825260409182902080548351601f60026000196101006001861615020190931692909204918201849004840281018401909452808452909291839190830182828015611f675780601f10611f3c57610100808354040283529160200191611f67565b820191906000526020600020905b815481529060010190602001808311611f4a57829003601f168201915b505050600184015460028501546003860154600487015460059097015495969295919450925060ff8082169161010090041687565b600354600160a060020a031681565b600a5481565b6006805460408051602060026001851615610100026000190190941693909304601f810184900484028201840190925281815292918301828280156110685780601f1061103d57610100808354040283529160200191611068565b6000610fac82604080519081016040528060098152602001600080516020612cf58339815191528152506112e9565b6018546000903390600160a060020a031681141561206857635cab29b0421161206357600080fd5b6120da565b601954600160a060020a038281169116141561208e57635cab29b0421161206357600080fd5b601a54600160a060020a03828116911614156120b457635cab29b0421161206357600080fd5b601b54600160a060020a03828116911614156120da57635cab29b0421161206357600080fd5b6120e4848461294b565b949350505050565b601854600160a060020a031681565b6aa56fa5b99019a5c800000081565b6003546000908190600160a060020a0316331461212657600080fd5b5060005b848110156114025761217286868381811061214157fe5b90506020020135600160a060020a0316600754600a0a868685818110151561216557fe5b9050602002013502611806565b5060010161212a565b600354600160a060020a0316331461219257600080fd5b8015156121b357601380546000919060ff19166001835b0217905550611745565b80600114156121cf57601380546001919060ff191682806121a9565b80600214156121ec57601380546002919060ff19166001836121a9565b806003141561220957601380546003919060ff19166001836121a9565b806004141561222657601380546004919060ff19166001836121a9565b506013805460ff19166005179055565b6000818152601660209081526040808320600180820154600280840154600385015460048601546005870154875489516101009882161589026000190190911695909504601f81018b90048b0286018b0190995288855260609a998a998a998a998a998a999298909790969095909460ff8083169593909204909116929189918301828280156123075780601f106122dc57610100808354040283529160200191612307565b820191906000526020600020905b8154815290600101906020018083116122ea57829003601f168201915b505050505096509650965096509650965096509650919395979092949650565b601954600160a060020a031681565b60106020526000908152604090205481565b601b54600160a060020a031681565b600354600160a060020a0316331461236e57600080fd5b601b5477010000000000000000000000000000000000000000000000900460ff161561239957600080fd5b601b805477ff000000000000000000000000000000000000000000000019600160a060020a03909316600160a060020a0319909116179190911677010000000000000000000000000000000000000000000000179055565b60095481565b60035460009060a860020a900460ff161561241157600080fd5b611094838361296f565b600160a060020a03918216600090815260026020908152604080832093909416825291909152205490565b600354600090600160a060020a0316331461246057600080fd5b5060005b81518110156111055761248d828281518110151561247e57fe5b90602001906020020151611d53565b600101612464565b60145481565b601b54760100000000000000000000000000000000000000000000900460ff1681565b600354600160a060020a031633146124d557600080fd5b601b5460a060020a900460ff16156124ec57600080fd5b601a8054600160a060020a03909216600160a060020a0319909216919091179055601b805475ff000000000000000000000000000000000000000000191660a860020a179055565b600e5481565b601780548290811061254857fe5b9060005260206000209060209182820401919006915054906101000a900460ff1681565b60116020526000908152604090205460ff1681565b600354600160a060020a0316331461259857600080fd5b61174581612a08565b600c5481565b600b5481565b60125481565b601e5481565b336000818152600260209081526040808320600160a060020a038716808552908352818420869055815186815291519394909390927f8c5be1e5ebec7d5bd14f71427d1e84f3dd0314c0f7b2291e5b200ac8c7c3b925928290030190a350600192915050565b6126298282612634565b151561110557600080fd5b600160a060020a03166000908152602091909152604090205460ff1690565b60035460009060a860020a900460ff161561266d57600080fd5b6120e4848484612a79565b6126e2826004836040518082805190602001908083835b602083106126ae5780518252601f19909201916020918201910161268f565b51815160209384036101000a6000190180199092169116179052920194855250604051938490030190922092915050612bde565b81600160a060020a03167fd211483f91fc6eff862467f8de606587a30c8fc9981056f051b897a418df803a826040518080602001828103825283818151815260200191508051906020019080838360005b8381101561274b578181015183820152602001612733565b50505050905090810190601f1680156127785780820380516001836020036101000a031916815260200191505b509250505060405180910390a25050565b336000908152600260209081526040808320600160a060020a0386168452909152812054808311156127de57336000908152600260209081526040808320600160a060020a0388168452909152812055612813565b6127ee818463ffffffff610f8d16565b336000908152600260209081526040808320600160a060020a03891684529091529020555b336000818152600260209081526040808320600160a060020a0389168085529083529281902054815190815290519293927f8c5be1e5ebec7d5bd14f71427d1e84f3dd0314c0f7b2291e5b200ac8c7c3b925929181900390910190a35060019392505050565b6128e3826004836040518082805190602001908083835b602083106128af5780518252601f199092019160209182019101612890565b51815160209384036101000a6000190180199092169116179052920194855250604051938490030190922092915050612c00565b81600160a060020a03167fbfec83d64eaa953f2708271a023ab9ee82057f8f3578d548c1a4ba0b5b700489826040518080602001828103825283818151815260200191508051906020019080838360008381101561274b578181015183820152602001612733565b60035460009060a860020a900460ff161561296557600080fd5b6110948383612c25565b336000908152600260209081526040808320600160a060020a03861684529091528120546129a3908363ffffffff610f9f16565b336000818152600260209081526040808320600160a060020a0389168085529083529281902085905580519485525191937f8c5be1e5ebec7d5bd14f71427d1e84f3dd0314c0f7b2291e5b200ac8c7c3b925929081900390910190a350600192915050565b600160a060020a0381161515612a1d57600080fd5b600354604051600160a060020a038084169216907f8be0079c531659141344cd1fd0a4f28419497f9722a3daafe3b4186f6b6457e090600090a360038054600160a060020a031916600160a060020a0392909216919091179055565b6000600160a060020a0383161515612a9057600080fd5b600160a060020a038416600090815260208190526040902054821115612ab557600080fd5b600160a060020a0384166000908152600260209081526040808320338452909152902054821115612ae557600080fd5b600160a060020a038416600090815260208190526040902054612b0e908363ffffffff610f8d16565b600160a060020a038086166000908152602081905260408082209390935590851681522054612b43908363ffffffff610f9f16565b600160a060020a03808516600090815260208181526040808320949094559187168152600282528281203382529091522054612b85908363ffffffff610f8d16565b600160a060020a0380861660008181526002602090815260408083203384528252918290209490945580518681529051928716939192600080516020612d15833981519152929181900390910190a35060019392505050565b600160a060020a0316600090815260209190915260409020805460ff19169055565b600160a060020a0316600090815260209190915260409020805460ff19166001179055565b6000600160a060020a0383161515612c3c57600080fd5b33600090815260208190526040902054821115612c5857600080fd5b33600090815260208190526040902054612c78908363ffffffff610f8d16565b3360009081526020819052604080822092909255600160a060020a03851681522054612caa908363ffffffff610f9f16565b600160a060020a03841660008181526020818152604091829020939093558051858152905191923392600080516020612d158339815191529281900390910190a350600192915050560077686974656c6973740000000000000000000000000000000000000000000000ddf252ad1be2c89b69c2b068fc378daa952ba7f163c4a11628f55a4df523b3efa165627a7a72305820b1ab51f264545ab3a3cd5e3960029b4814142e6f8ccfba3019f6df60ed0565840029",
  "source": "pragma solidity ^0.4.23;\n\nimport \"../node_modules/openzeppelin-solidity/contracts/math/SafeMath.sol\";\nimport \"../node_modules/openzeppelin-solidity/contracts/ownership/Ownable.sol\";\nimport \"../node_modules/openzeppelin-solidity/contracts/token/ERC20/MintableToken.sol\";\nimport \"../node_modules/openzeppelin-solidity/contracts/token/ERC20/PausableToken.sol\";\nimport \"../node_modules/openzeppelin-solidity/contracts/access/Whitelist.sol\";\n\ncontract ClickCoinCrowdsale is MintableToken, PausableToken, Whitelist {\n  \n    using SafeMath for uint256;\n\n    /* Token Details */\n    string public name = \"ClickCoin\";\n    string public symbol = \"CLC\";\n    uint256 public decimals = 18;\n\n  /* Token Supply Details */\n\n    uint256 constant public MAX_TOTAL_SUPPLY = 1000000000e18;      //1 Billion.\n    uint256 constant public PRESALE_SUPPLY = 150000000e18;        //15 %\n    uint256 constant public TEAM_AND_FOUNDER_SUPPLY = 130000000e18; //13%\n    uint256 constant public RESERVE_SUPPLY = 200000000e18;        //20%\n    uint256 constant public ADVISER_SUPPLY = 20000000e18;         //2%\n    uint256 constant public AIRDROP_SUPPLY = 10000000e18;         //1%\n    uint256 constant public BOUNTY_SUPPLY = 40000000e18;          //4%\n    uint256 constant public CROWDSALE_SUPPLY = 450000000e18;      //45%\n\n /* Crowdsale Details */\n\n    uint256 public crowdSaleTotalTokensSold;\n    uint256 public crowdSaleTotalEthRaised;\n\n  /* General Crowdsale Details */\n\n    uint256 public softCap = 10000 ether;\n    uint256 public hardCap = 50000 ether;\n    uint256 public CLCPerEther;\n    uint256 public CLCPerBitcoin;\n    uint256 public CLCPerDollar;\n    //enum CrowdSaleStage { Unknown, Preparing, PreSale, ICOroundOne, ICOroundOneFinalized, ICOroundTwo, ICOroundTwoFinalized, ICOroundThree, ICOroundThreeFinalized, ICOroundFour, PreSaleFinalized, ICOFinalized }\n    enum CrowdSaleStage {PreSale, RoundOne, RoundTwo, RoundThree, RoundFour, Preparing}\n    address[] public walletAddress;\n    mapping(address => uint256) public balanceamount;\n    mapping(address => bool) public addressadded;\n    uint public airdropAmount;\n    CrowdSaleStage public _stage = CrowdSaleStage.RoundOne;\n    bool private saleInActiveMode;\n    bool private saleIsFinished;\n    bool public hasPrematurelyEnded;\n    address private constant WITHDRAW_TO_WALLET_ADDRESS = 0xfA2d5938722abcD418143a08CBE007fbAEB7b86c;\n    uint256 public crowdsaleStartTime;\n    uint256 public crowdsaleEndTime;\n    struct Round {\n        string roundName;\n        uint256 roundStartDate;\n        uint256 roundEndDate;\n        uint256 roundTokensSold;\n        uint256 roundEthRaised;\n        uint8 percentOfTokensAvailable;\n        uint8 roundBonusPercent;\n    }\n\n    mapping (uint256 => Round) public rounds;\n    uint8[] public roundIndexes;\n\n    address public teamAndFounderFund; // team wallet address\n    address public reserveFund;\n    address public adviserFund;\n    address public bountyFund;\n\n    bool public isSetTeamWallet = false;\n    bool public isSetAdviserWallet = false;\n    bool public isSetReserveWallet = false;\n    bool public isSetBountyWallet = false;\n    \n    /** Set team address (only once) */\n    function setTeamAddress(address _teamAndFounderFund) external onlyOwner {\n        require(isSetTeamWallet == false);\n\n        teamAndFounderFund = _teamAndFounderFund;\n        isSetTeamWallet = true;\n    }\n    \n    function setReserveAddress(address _reserveFund) external onlyOwner {\n        require(isSetReserveWallet == false);\n\n        reserveFund = _reserveFund;\n        isSetReserveWallet = true;\n    }\n    \n    function setAdviserAddress(address _adviserFund) external onlyOwner {\n        require(isSetTeamWallet == false);\n\n        adviserFund = _adviserFund;\n        isSetAdviserWallet = true;\n    }\n    \n    function setBountyAddress(address _bountyFund) external onlyOwner {\n        require(isSetBountyWallet == false);\n\n        bountyFund = _bountyFund;\n        isSetBountyWallet = true;\n    }\n\n    modifier canTransfer (address sender) {\n        if (sender == teamAndFounderFund) {\n            require(now > (1539169200 + 180 days));\n        }\n        else if (sender == reserveFund) {\n             require(now > (1539169200 + 180 days));\n        }\n        else if (sender == adviserFund) {\n             require(now > (1539169200 + 180 days));\n        }\n        else if (sender == bountyFund) {\n            require(now > (1539169200 + 180 days));\n        }\n        else {\n           // require(now > (1539169200));\n        }\n        _;\n    }\n\n    function transfer(address _to, uint256 _value) public canTransfer(msg.sender) returns (bool) {\n        return super.transfer(_to, _value);\n    }\n\n    function transferFrom(address _from, address _to, uint256 _value) public canTransfer(_from) returns (bool) {\n        return super.transferFrom(_from, _to, _value);\n    }\n\n    //address private constant withdrawToWalletAddress = ;\n\n    uint256 public initialSupply = 600000000e18;    //600 Million\n    uint256 public tokensSold;\n    uint256 public ethRaised;\n  \n    constructor() public {\n        totalSupply_ = initialSupply;\n        balances[msg.sender] = initialSupply;\n        balanceamount[msg.sender] = initialSupply;\n        ethRaised = 0;\n        airdropAmount = 0;\n        //_stage = CrowdSaleStage.Preparing;\n        saleInActiveMode = false;\n        CLCPerEther = 1000;\n        CLCPerBitcoin = 5000;\n        CLCPerDollar = 10;\n        saleIsFinished = false;\n        hasPrematurelyEnded = false;\n        crowdSaleTotalTokensSold = 0;    //Initialization of Tokens Sold\n        crowdSaleTotalEthRaised = 0;     //Initialization of Ethers Raised\n        crowdsaleStartTime = 1531979961;     //15-07-2018 11:00:00\n        crowdsaleEndTime = 1532775600;\n        roundIndexes = [0, 1, 2, 3, 4];\n        //Details Of All Rounds\n\n        //Presale Round\n\n        Round storage preSale = rounds[0];\n        preSale.roundName = \"Presale\";\n        preSale.roundStartDate = 1531979961;        //19th July\n        preSale.roundEndDate = 1532088000;          //20th July\n        preSale.roundTokensSold = 0;\n        preSale.roundEthRaised = 0;\n        preSale.percentOfTokensAvailable = 15;\n        preSale.roundBonusPercent = 25;\n\n        //Round One\n\n        Round storage roundOne = rounds[1];\n        roundOne.roundName = \"Round 1\";\n        roundOne.roundStartDate = 1532170800;        //21th July\n        roundOne.roundEndDate = 1532257200;          //22th July\n        roundOne.roundTokensSold = 0;\n        roundOne.roundEthRaised = 0;\n        roundOne.percentOfTokensAvailable = 25;\n        roundOne.roundBonusPercent = 20;\n\n       //Round Two\n\n        Round storage roundTwo = rounds[2];\n        roundTwo.roundName = \"Round 2\";\n        roundTwo.roundStartDate = 1532343600;        //23th July\n        roundTwo.roundEndDate = 1532430000;          //24th July\n        roundTwo.roundTokensSold = 0;\n        roundTwo.roundEthRaised = 0;\n        roundTwo.percentOfTokensAvailable = 10;\n        roundTwo.roundBonusPercent = 15;\n\n       //Round Three\n\n        Round storage roundThree = rounds[3];\n        roundThree.roundName = \"Round 3\";\n        roundThree.roundStartDate = 1532516400;        //25th July\n        roundThree.roundEndDate = 1532602800;          //26th July\n        roundThree.roundTokensSold = 0;\n        roundThree.roundEthRaised = 0;\n        roundThree.percentOfTokensAvailable = 7;\n        roundThree.roundBonusPercent = 10;\n\n        //Round Four\n\n        Round storage roundFour = rounds[4];\n        roundFour.roundName = \"Round 4\";\n        roundFour.roundStartDate = 1532689200;        //27th July\n        roundFour.roundEndDate = 1532775600;          //28th July\n        roundFour.roundTokensSold = 0;\n        roundFour.roundEthRaised = 0;\n        roundFour.percentOfTokensAvailable = 3;\n        roundFour.roundBonusPercent = 5;\n    }\n\n    modifier hardCapReached () {\n        require(crowdSaleTotalEthRaised >= hardCap);\n        _;\n    } \n\n    modifier hardCapNotReached () {\n        require(crowdSaleTotalEthRaised < hardCap);\n        _;\n    } \n\n    modifier saleTimeFinished () {\n        require(now > crowdsaleEndTime);\n        _;\n    }\n\n    function getRoundDetails(uint256 index) external view  \n    returns (string, uint256, uint256, uint256, uint256, uint8,uint8) {\n        return (rounds[index].roundName, rounds[index].roundStartDate, rounds[index].roundEndDate, \n        rounds[index].roundTokensSold, rounds[index].roundEthRaised, rounds[index].percentOfTokensAvailable,rounds[index].roundBonusPercent);\n    }\n\n    function getRoundPrices() external view returns (uint256, uint256, uint256) {\n        return (CLCPerEther,CLCPerBitcoin,CLCPerDollar);\n    }\n\n     function getBalanceInfo(address _address) external view returns(uint256) {\n        return (balanceamount[_address]);\n    } \n\n    function startCrowdsaleStage(uint256 index2) external onlyOwner {\n        if (index2 == 0) {\n            _stage = CrowdSaleStage.PreSale;\n        }\n        else if (index2 == 1) {\n            _stage = CrowdSaleStage.RoundOne;\n        }\n        else if (index2 == 2) {\n            _stage = CrowdSaleStage.RoundTwo;\n        }\n        else if (index2 == 3) {\n             _stage = CrowdSaleStage.RoundThree;\n        }\n        else if (index2 == 4) {\n            _stage = CrowdSaleStage.RoundFour;\n        }\n        else {\n            _stage = CrowdSaleStage.Preparing;\n        }\n        \n    }\n\n    function endCrowdsaleStage() external onlyOwner{\n        if (_stage == CrowdSaleStage.PreSale) {\n            rounds[0].roundTokensSold = tokensSold;\n            tokensSold = 0;\n            rounds[0].roundEthRaised = ethRaised;\n            ethRaised = 0;\n        }\n        else if (_stage == CrowdSaleStage.RoundOne) {\n            rounds[1].roundTokensSold = tokensSold;\n            tokensSold = 0;\n            rounds[1].roundEthRaised = ethRaised;\n            ethRaised = 0;\n        }\n        else if (_stage == CrowdSaleStage.RoundTwo) {\n            rounds[2].roundTokensSold = tokensSold;\n            tokensSold = 0;\n            rounds[2].roundEthRaised = ethRaised;\n            ethRaised = 0;\n        }\n        else if (_stage == CrowdSaleStage.RoundThree) {\n            rounds[3].roundTokensSold = tokensSold;\n            tokensSold = 0;\n            rounds[3].roundEthRaised = ethRaised;\n            ethRaised = 0;\n        }\n        else if (_stage == CrowdSaleStage.RoundFour) {\n            rounds[4].roundTokensSold = tokensSold;\n            tokensSold = 0;\n            rounds[4].roundEthRaised = ethRaised;\n            ethRaised = 0;\n            saleIsFinished = true;\n        }\n        _stage =  CrowdSaleStage.Preparing;\n    }\n\n    function changeParameters(uint256 crowdsalestarttime,uint256 crowdsaleendtime,uint256 CLCperether,uint256 CLCperbitcoin,uint256 CLCperdollar) external onlyOwner returns (bool) {\n        crowdsaleStartTime = crowdsalestarttime;\n        crowdsaleEndTime = crowdsaleendtime;\n        CLCPerEther = CLCperether;\n        CLCPerBitcoin = CLCperbitcoin;\n        CLCPerDollar = CLCperdollar;\n        return true;\n    }\n\n    function () external payable {\n        require(msg.value > 0);\n        //require(CLCPerEther > 0);\n        //require(!saleIsFinished);\n        //require(block.timestamp > crowdsaleStartTime && block.timestamp < crowdsaleEndTime);\n        //require(!hasPrematurelyEnded);\n        //require(_stage != CrowdSaleStage.Preparing);\n        uint256 tokens;\n        \n        tokens = msg.value * CLCPerEther;\n        if (addressadded[msg.sender] != true) {\n            walletAddress.push(msg.sender);\n        }\n        balanceamount[owner] = balanceamount[owner].sub(tokens);\n        balanceamount[msg.sender] = balanceamount[msg.sender].add(tokens);\n        //balances[owner] = balances[owner].sub(tokens);\n        //balances[msg.sender] = balances[msg.sender].add(tokens);\n        tokensSold = tokensSold.add(tokens);\n        ethRaised = ethRaised.add(msg.value);\n        crowdSaleTotalTokensSold = crowdSaleTotalTokensSold.add(tokens);\n        crowdSaleTotalEthRaised = crowdSaleTotalEthRaised.add(msg.value);\n        addressadded[msg.sender]  = true;\n    }\n\n    function buywithBTC(address sender,uint256 tokens) external {\n         if (addressadded[msg.sender] != true) {\n            walletAddress.push(sender);\n        }\n        balanceamount[owner] = balanceamount[owner].sub(tokens);\n        balanceamount[sender] = balanceamount[sender].add(tokens);\n        tokensSold = tokensSold.add(tokens);\n        crowdSaleTotalTokensSold = crowdSaleTotalTokensSold.add(tokens);\n        addressadded[msg.sender]  = true;\n    }\n\n    function transferAllTokens() external onlyOwner returns(bool) {\n        for (uint32 j = 0; j < walletAddress.length; j++) {\n\n            if (balanceamount[walletAddress[j]] > 0) {\n                allocateTokens(msg.sender, walletAddress[j], balanceamount[walletAddress[j]]);\n                balanceamount[walletAddress[j]] = 0; \n            }\n            \n        }\n\n        return true;\n\n    }\n\n    function allocateTokens(address sendingAddress, address to, uint256 tokenAmount) public {\n        require(sendingAddress == owner);\n        require(tokenAmount <= balances[sendingAddress]);\n        \n        require(to != address(0));\n        balances[sendingAddress] = balances[sendingAddress].sub(tokenAmount);\n        balances[to] = balances[to].add(tokenAmount);\n        emit Transfer(sendingAddress, to, tokenAmount);\n    }\n\n    function multisend(address[] dests, uint256[] values) external\n    onlyOwner\n    returns (uint) {\n        uint i = 0;\n        while (i < dests.length) {\n           super.mint(dests[i], values[i] * 10 ** decimals);\n           i = i + 1;\n        }\n        return(i);\n    }\n\n    function transferTokensToWallet() internal {\n        require(WITHDRAW_TO_WALLET_ADDRESS != address(0));\n        require(balances[owner] > 0);\n        balances[WITHDRAW_TO_WALLET_ADDRESS] =  balances[WITHDRAW_TO_WALLET_ADDRESS].add(balances[owner]);\n        balances[owner] = 0;\n    }\n\n}",
  "sourcePath": "/var/www/html/BlockChain_Workspace/Clicktool_Commit/ct-web-wallet/contracts/ClickCoinCrowdsale.sol",
  "compiler": {
    "name": "solc",
    "version": "0.4.24+commit.e67f0147.Emscripten.clang"
  },
  "schemaVersion": "2.0.1",
  "updatedAt": "2018-09-03T05:47:34.211Z"
}